{
  "contracts/SimpleStorage.sol": {
    "SimpleStorage": {
      "abi": [
        {
          "inputs": [
            {
              "internalType": "string",
              "name": "_name",
              "type": "string"
            },
            {
              "internalType": "uint256",
              "name": "_favoriteNumber",
              "type": "uint256"
            }
          ],
          "name": "addPerson",
          "outputs": [],
          "stateMutability": "nonpayable",
          "type": "function"
        },
        {
          "inputs": [
            {
              "internalType": "uint256",
              "name": "",
              "type": "uint256"
            }
          ],
          "name": "people",
          "outputs": [
            {
              "internalType": "string",
              "name": "name",
              "type": "string"
            },
            {
              "internalType": "uint256",
              "name": "favoriteNumber",
              "type": "uint256"
            }
          ],
          "stateMutability": "view",
          "type": "function"
        },
        {
          "inputs": [],
          "name": "retrieve",
          "outputs": [
            {
              "internalType": "uint256",
              "name": "",
              "type": "uint256"
            }
          ],
          "stateMutability": "view",
          "type": "function"
        },
        {
          "inputs": [
            {
              "internalType": "uint256",
              "name": "_favoriteNumber",
              "type": "uint256"
            }
          ],
          "name": "store",
          "outputs": [],
          "stateMutability": "nonpayable",
          "type": "function"
        }
      ],
      "evm": {
        "bytecode": {
          "linkReferences": {},
          "object": "608060405234801561001057600080fd5b506107d9806100206000396000f3fe608060405234801561001057600080fd5b506004361061004c5760003560e01c80632e64cec1146100515780636057361d1461006f5780636f760f411461008b5780639e7a13ad146100a7575b600080fd5b6100596100d8565b6040516100669190610460565b60405180910390f35b610089600480360381019061008491906104bb565b610166565b005b6100a560048036038101906100a0919061062e565b6101f4565b005b6100c160048036038101906100bc91906104bb565b6102e5565b6040516100cf929190610712565b60405180910390f35b60006101067f51a697b33be75eecbe95d6f5b56a1ba65a143754a709f2e5ecb0c1861564239c60001b6103a1565b6101327ffda407c13250df53d7ed16e3d17bd6bc1caa86f27067d968361bdf6ade7f20e460001b6103a1565b61015e7fa3f7144769adfba439f51a4e44240de91231e054c9db5b704cf62ed7360096b860001b6103a1565b600054905090565b6101927f0852d80376f439cfe6e2bdf1b1b7fd85dc1a543444efb89d56ba046a5001d5c760001b6103a1565b6101be7ff6ab3945d9025bb3f3c18e25b5b64371284f26ab99b0c04c1463c2fb11a4e0ef60001b6103a1565b6101ea7fb07f19f4cb2ec44c15bcb55c0e57350509229da7c6bfb6bc620f4d8daaaf4f8560001b6103a1565b8060008190555050565b6102207f40cc8135153e81ead3891f67c27b027b50966ff324f9571de01c97a35b07ab7160001b6103a1565b61024c7f0ca9fbd55aee2b996c483eb696409ce98a10dc42a2f94d4816a2e916c8e4ee7d60001b6103a1565b6102787f55e61f6dbeb8f0c11f2a8328b12dac80e01894790fa7d0edbffde0549790dfcd60001b6103a1565b6001604051806040016040528084815260200183815250908060018154018082558091505060019003906000526020600020906002020160009091909190915060008201518160000190805190602001906102d49291906103a4565b506020820151816001015550505050565b600181815481106102f557600080fd5b906000526020600020906002020160009150905080600001805461031890610771565b80601f016020809104026020016040519081016040528092919081815260200182805461034490610771565b80156103915780601f1061036657610100808354040283529160200191610391565b820191906000526020600020905b81548152906001019060200180831161037457829003601f168201915b5050505050908060010154905082565b50565b8280546103b090610771565b90600052602060002090601f0160209004810192826103d25760008555610419565b82601f106103eb57805160ff1916838001178555610419565b82800160010185558215610419579182015b828111156104185782518255916020019190600101906103fd565b5b509050610426919061042a565b5090565b5b8082111561044357600081600090555060010161042b565b5090565b6000819050919050565b61045a81610447565b82525050565b60006020820190506104756000830184610451565b92915050565b6000604051905090565b600080fd5b600080fd5b61049881610447565b81146104a357600080fd5b50565b6000813590506104b58161048f565b92915050565b6000602082840312156104d1576104d0610485565b5b60006104df848285016104a6565b91505092915050565b600080fd5b600080fd5b6000601f19601f8301169050919050565b7f4e487b7100000000000000000000000000000000000000000000000000000000600052604160045260246000fd5b61053b826104f2565b810181811067ffffffffffffffff8211171561055a57610559610503565b5b80604052505050565b600061056d61047b565b90506105798282610532565b919050565b600067ffffffffffffffff82111561059957610598610503565b5b6105a2826104f2565b9050602081019050919050565b82818337600083830152505050565b60006105d16105cc8461057e565b610563565b9050828152602081018484840111156105ed576105ec6104ed565b5b6105f88482856105af565b509392505050565b600082601f830112610615576106146104e8565b5b81356106258482602086016105be565b91505092915050565b6000806040838503121561064557610644610485565b5b600083013567ffffffffffffffff8111156106635761066261048a565b5b61066f85828601610600565b9250506020610680858286016104a6565b9150509250929050565b600081519050919050565b600082825260208201905092915050565b60005b838110156106c45780820151818401526020810190506106a9565b838111156106d3576000848401525b50505050565b60006106e48261068a565b6106ee8185610695565b93506106fe8185602086016106a6565b610707816104f2565b840191505092915050565b6000604082019050818103600083015261072c81856106d9565b905061073b6020830184610451565b9392505050565b7f4e487b7100000000000000000000000000000000000000000000000000000000600052602260045260246000fd5b6000600282049050600182168061078957607f821691505b6020821081141561079d5761079c610742565b5b5091905056fea264697066735822122006d009d90fd6f80607fbca5f3b67e7ffb6790defc304365031d21aa73a81b23c64736f6c63430008090033",
          "opcodes": "PUSH1 0x80 PUSH1 0x40 MSTORE CALLVALUE DUP1 ISZERO PUSH2 0x10 JUMPI PUSH1 0x0 DUP1 REVERT JUMPDEST POP PUSH2 0x7D9 DUP1 PUSH2 0x20 PUSH1 0x0 CODECOPY PUSH1 0x0 RETURN INVALID PUSH1 0x80 PUSH1 0x40 MSTORE CALLVALUE DUP1 ISZERO PUSH2 0x10 JUMPI PUSH1 0x0 DUP1 REVERT JUMPDEST POP PUSH1 0x4 CALLDATASIZE LT PUSH2 0x4C JUMPI PUSH1 0x0 CALLDATALOAD PUSH1 0xE0 SHR DUP1 PUSH4 0x2E64CEC1 EQ PUSH2 0x51 JUMPI DUP1 PUSH4 0x6057361D EQ PUSH2 0x6F JUMPI DUP1 PUSH4 0x6F760F41 EQ PUSH2 0x8B JUMPI DUP1 PUSH4 0x9E7A13AD EQ PUSH2 0xA7 JUMPI JUMPDEST PUSH1 0x0 DUP1 REVERT JUMPDEST PUSH2 0x59 PUSH2 0xD8 JUMP JUMPDEST PUSH1 0x40 MLOAD PUSH2 0x66 SWAP2 SWAP1 PUSH2 0x460 JUMP JUMPDEST PUSH1 0x40 MLOAD DUP1 SWAP2 SUB SWAP1 RETURN JUMPDEST PUSH2 0x89 PUSH1 0x4 DUP1 CALLDATASIZE SUB DUP2 ADD SWAP1 PUSH2 0x84 SWAP2 SWAP1 PUSH2 0x4BB JUMP JUMPDEST PUSH2 0x166 JUMP JUMPDEST STOP JUMPDEST PUSH2 0xA5 PUSH1 0x4 DUP1 CALLDATASIZE SUB DUP2 ADD SWAP1 PUSH2 0xA0 SWAP2 SWAP1 PUSH2 0x62E JUMP JUMPDEST PUSH2 0x1F4 JUMP JUMPDEST STOP JUMPDEST PUSH2 0xC1 PUSH1 0x4 DUP1 CALLDATASIZE SUB DUP2 ADD SWAP1 PUSH2 0xBC SWAP2 SWAP1 PUSH2 0x4BB JUMP JUMPDEST PUSH2 0x2E5 JUMP JUMPDEST PUSH1 0x40 MLOAD PUSH2 0xCF SWAP3 SWAP2 SWAP1 PUSH2 0x712 JUMP JUMPDEST PUSH1 0x40 MLOAD DUP1 SWAP2 SUB SWAP1 RETURN JUMPDEST PUSH1 0x0 PUSH2 0x106 PUSH32 0x51A697B33BE75EECBE95D6F5B56A1BA65A143754A709F2E5ECB0C1861564239C PUSH1 0x0 SHL PUSH2 0x3A1 JUMP JUMPDEST PUSH2 0x132 PUSH32 0xFDA407C13250DF53D7ED16E3D17BD6BC1CAA86F27067D968361BDF6ADE7F20E4 PUSH1 0x0 SHL PUSH2 0x3A1 JUMP JUMPDEST PUSH2 0x15E PUSH32 0xA3F7144769ADFBA439F51A4E44240DE91231E054C9DB5B704CF62ED7360096B8 PUSH1 0x0 SHL PUSH2 0x3A1 JUMP JUMPDEST PUSH1 0x0 SLOAD SWAP1 POP SWAP1 JUMP JUMPDEST PUSH2 0x192 PUSH32 0x852D80376F439CFE6E2BDF1B1B7FD85DC1A543444EFB89D56BA046A5001D5C7 PUSH1 0x0 SHL PUSH2 0x3A1 JUMP JUMPDEST PUSH2 0x1BE PUSH32 0xF6AB3945D9025BB3F3C18E25B5B64371284F26AB99B0C04C1463C2FB11A4E0EF PUSH1 0x0 SHL PUSH2 0x3A1 JUMP JUMPDEST PUSH2 0x1EA PUSH32 0xB07F19F4CB2EC44C15BCB55C0E57350509229DA7C6BFB6BC620F4D8DAAAF4F85 PUSH1 0x0 SHL PUSH2 0x3A1 JUMP JUMPDEST DUP1 PUSH1 0x0 DUP2 SWAP1 SSTORE POP POP JUMP JUMPDEST PUSH2 0x220 PUSH32 0x40CC8135153E81EAD3891F67C27B027B50966FF324F9571DE01C97A35B07AB71 PUSH1 0x0 SHL PUSH2 0x3A1 JUMP JUMPDEST PUSH2 0x24C PUSH32 0xCA9FBD55AEE2B996C483EB696409CE98A10DC42A2F94D4816A2E916C8E4EE7D PUSH1 0x0 SHL PUSH2 0x3A1 JUMP JUMPDEST PUSH2 0x278 PUSH32 0x55E61F6DBEB8F0C11F2A8328B12DAC80E01894790FA7D0EDBFFDE0549790DFCD PUSH1 0x0 SHL PUSH2 0x3A1 JUMP JUMPDEST PUSH1 0x1 PUSH1 0x40 MLOAD DUP1 PUSH1 0x40 ADD PUSH1 0x40 MSTORE DUP1 DUP5 DUP2 MSTORE PUSH1 0x20 ADD DUP4 DUP2 MSTORE POP SWAP1 DUP1 PUSH1 0x1 DUP2 SLOAD ADD DUP1 DUP3 SSTORE DUP1 SWAP2 POP POP PUSH1 0x1 SWAP1 SUB SWAP1 PUSH1 0x0 MSTORE PUSH1 0x20 PUSH1 0x0 KECCAK256 SWAP1 PUSH1 0x2 MUL ADD PUSH1 0x0 SWAP1 SWAP2 SWAP1 SWAP2 SWAP1 SWAP2 POP PUSH1 0x0 DUP3 ADD MLOAD DUP2 PUSH1 0x0 ADD SWAP1 DUP1 MLOAD SWAP1 PUSH1 0x20 ADD SWAP1 PUSH2 0x2D4 SWAP3 SWAP2 SWAP1 PUSH2 0x3A4 JUMP JUMPDEST POP PUSH1 0x20 DUP3 ADD MLOAD DUP2 PUSH1 0x1 ADD SSTORE POP POP POP POP JUMP JUMPDEST PUSH1 0x1 DUP2 DUP2 SLOAD DUP2 LT PUSH2 0x2F5 JUMPI PUSH1 0x0 DUP1 REVERT JUMPDEST SWAP1 PUSH1 0x0 MSTORE PUSH1 0x20 PUSH1 0x0 KECCAK256 SWAP1 PUSH1 0x2 MUL ADD PUSH1 0x0 SWAP2 POP SWAP1 POP DUP1 PUSH1 0x0 ADD DUP1 SLOAD PUSH2 0x318 SWAP1 PUSH2 0x771 JUMP JUMPDEST DUP1 PUSH1 0x1F ADD PUSH1 0x20 DUP1 SWAP2 DIV MUL PUSH1 0x20 ADD PUSH1 0x40 MLOAD SWAP1 DUP2 ADD PUSH1 0x40 MSTORE DUP1 SWAP3 SWAP2 SWAP1 DUP2 DUP2 MSTORE PUSH1 0x20 ADD DUP3 DUP1 SLOAD PUSH2 0x344 SWAP1 PUSH2 0x771 JUMP JUMPDEST DUP1 ISZERO PUSH2 0x391 JUMPI DUP1 PUSH1 0x1F LT PUSH2 0x366 JUMPI PUSH2 0x100 DUP1 DUP4 SLOAD DIV MUL DUP4 MSTORE SWAP2 PUSH1 0x20 ADD SWAP2 PUSH2 0x391 JUMP JUMPDEST DUP3 ADD SWAP2 SWAP1 PUSH1 0x0 MSTORE PUSH1 0x20 PUSH1 0x0 KECCAK256 SWAP1 JUMPDEST DUP2 SLOAD DUP2 MSTORE SWAP1 PUSH1 0x1 ADD SWAP1 PUSH1 0x20 ADD DUP1 DUP4 GT PUSH2 0x374 JUMPI DUP3 SWAP1 SUB PUSH1 0x1F AND DUP3 ADD SWAP2 JUMPDEST POP POP POP POP POP SWAP1 DUP1 PUSH1 0x1 ADD SLOAD SWAP1 POP DUP3 JUMP JUMPDEST POP JUMP JUMPDEST DUP3 DUP1 SLOAD PUSH2 0x3B0 SWAP1 PUSH2 0x771 JUMP JUMPDEST SWAP1 PUSH1 0x0 MSTORE PUSH1 0x20 PUSH1 0x0 KECCAK256 SWAP1 PUSH1 0x1F ADD PUSH1 0x20 SWAP1 DIV DUP2 ADD SWAP3 DUP3 PUSH2 0x3D2 JUMPI PUSH1 0x0 DUP6 SSTORE PUSH2 0x419 JUMP JUMPDEST DUP3 PUSH1 0x1F LT PUSH2 0x3EB JUMPI DUP1 MLOAD PUSH1 0xFF NOT AND DUP4 DUP1 ADD OR DUP6 SSTORE PUSH2 0x419 JUMP JUMPDEST DUP3 DUP1 ADD PUSH1 0x1 ADD DUP6 SSTORE DUP3 ISZERO PUSH2 0x419 JUMPI SWAP2 DUP3 ADD JUMPDEST DUP3 DUP2 GT ISZERO PUSH2 0x418 JUMPI DUP3 MLOAD DUP3 SSTORE SWAP2 PUSH1 0x20 ADD SWAP2 SWAP1 PUSH1 0x1 ADD SWAP1 PUSH2 0x3FD JUMP JUMPDEST JUMPDEST POP SWAP1 POP PUSH2 0x426 SWAP2 SWAP1 PUSH2 0x42A JUMP JUMPDEST POP SWAP1 JUMP JUMPDEST JUMPDEST DUP1 DUP3 GT ISZERO PUSH2 0x443 JUMPI PUSH1 0x0 DUP2 PUSH1 0x0 SWAP1 SSTORE POP PUSH1 0x1 ADD PUSH2 0x42B JUMP JUMPDEST POP SWAP1 JUMP JUMPDEST PUSH1 0x0 DUP2 SWAP1 POP SWAP2 SWAP1 POP JUMP JUMPDEST PUSH2 0x45A DUP2 PUSH2 0x447 JUMP JUMPDEST DUP3 MSTORE POP POP JUMP JUMPDEST PUSH1 0x0 PUSH1 0x20 DUP3 ADD SWAP1 POP PUSH2 0x475 PUSH1 0x0 DUP4 ADD DUP5 PUSH2 0x451 JUMP JUMPDEST SWAP3 SWAP2 POP POP JUMP JUMPDEST PUSH1 0x0 PUSH1 0x40 MLOAD SWAP1 POP SWAP1 JUMP JUMPDEST PUSH1 0x0 DUP1 REVERT JUMPDEST PUSH1 0x0 DUP1 REVERT JUMPDEST PUSH2 0x498 DUP2 PUSH2 0x447 JUMP JUMPDEST DUP2 EQ PUSH2 0x4A3 JUMPI PUSH1 0x0 DUP1 REVERT JUMPDEST POP JUMP JUMPDEST PUSH1 0x0 DUP2 CALLDATALOAD SWAP1 POP PUSH2 0x4B5 DUP2 PUSH2 0x48F JUMP JUMPDEST SWAP3 SWAP2 POP POP JUMP JUMPDEST PUSH1 0x0 PUSH1 0x20 DUP3 DUP5 SUB SLT ISZERO PUSH2 0x4D1 JUMPI PUSH2 0x4D0 PUSH2 0x485 JUMP JUMPDEST JUMPDEST PUSH1 0x0 PUSH2 0x4DF DUP5 DUP3 DUP6 ADD PUSH2 0x4A6 JUMP JUMPDEST SWAP2 POP POP SWAP3 SWAP2 POP POP JUMP JUMPDEST PUSH1 0x0 DUP1 REVERT JUMPDEST PUSH1 0x0 DUP1 REVERT JUMPDEST PUSH1 0x0 PUSH1 0x1F NOT PUSH1 0x1F DUP4 ADD AND SWAP1 POP SWAP2 SWAP1 POP JUMP JUMPDEST PUSH32 0x4E487B7100000000000000000000000000000000000000000000000000000000 PUSH1 0x0 MSTORE PUSH1 0x41 PUSH1 0x4 MSTORE PUSH1 0x24 PUSH1 0x0 REVERT JUMPDEST PUSH2 0x53B DUP3 PUSH2 0x4F2 JUMP JUMPDEST DUP2 ADD DUP2 DUP2 LT PUSH8 0xFFFFFFFFFFFFFFFF DUP3 GT OR ISZERO PUSH2 0x55A JUMPI PUSH2 0x559 PUSH2 0x503 JUMP JUMPDEST JUMPDEST DUP1 PUSH1 0x40 MSTORE POP POP POP JUMP JUMPDEST PUSH1 0x0 PUSH2 0x56D PUSH2 0x47B JUMP JUMPDEST SWAP1 POP PUSH2 0x579 DUP3 DUP3 PUSH2 0x532 JUMP JUMPDEST SWAP2 SWAP1 POP JUMP JUMPDEST PUSH1 0x0 PUSH8 0xFFFFFFFFFFFFFFFF DUP3 GT ISZERO PUSH2 0x599 JUMPI PUSH2 0x598 PUSH2 0x503 JUMP JUMPDEST JUMPDEST PUSH2 0x5A2 DUP3 PUSH2 0x4F2 JUMP JUMPDEST SWAP1 POP PUSH1 0x20 DUP2 ADD SWAP1 POP SWAP2 SWAP1 POP JUMP JUMPDEST DUP3 DUP2 DUP4 CALLDATACOPY PUSH1 0x0 DUP4 DUP4 ADD MSTORE POP POP POP JUMP JUMPDEST PUSH1 0x0 PUSH2 0x5D1 PUSH2 0x5CC DUP5 PUSH2 0x57E JUMP JUMPDEST PUSH2 0x563 JUMP JUMPDEST SWAP1 POP DUP3 DUP2 MSTORE PUSH1 0x20 DUP2 ADD DUP5 DUP5 DUP5 ADD GT ISZERO PUSH2 0x5ED JUMPI PUSH2 0x5EC PUSH2 0x4ED JUMP JUMPDEST JUMPDEST PUSH2 0x5F8 DUP5 DUP3 DUP6 PUSH2 0x5AF JUMP JUMPDEST POP SWAP4 SWAP3 POP POP POP JUMP JUMPDEST PUSH1 0x0 DUP3 PUSH1 0x1F DUP4 ADD SLT PUSH2 0x615 JUMPI PUSH2 0x614 PUSH2 0x4E8 JUMP JUMPDEST JUMPDEST DUP2 CALLDATALOAD PUSH2 0x625 DUP5 DUP3 PUSH1 0x20 DUP7 ADD PUSH2 0x5BE JUMP JUMPDEST SWAP2 POP POP SWAP3 SWAP2 POP POP JUMP JUMPDEST PUSH1 0x0 DUP1 PUSH1 0x40 DUP4 DUP6 SUB SLT ISZERO PUSH2 0x645 JUMPI PUSH2 0x644 PUSH2 0x485 JUMP JUMPDEST JUMPDEST PUSH1 0x0 DUP4 ADD CALLDATALOAD PUSH8 0xFFFFFFFFFFFFFFFF DUP2 GT ISZERO PUSH2 0x663 JUMPI PUSH2 0x662 PUSH2 0x48A JUMP JUMPDEST JUMPDEST PUSH2 0x66F DUP6 DUP3 DUP7 ADD PUSH2 0x600 JUMP JUMPDEST SWAP3 POP POP PUSH1 0x20 PUSH2 0x680 DUP6 DUP3 DUP7 ADD PUSH2 0x4A6 JUMP JUMPDEST SWAP2 POP POP SWAP3 POP SWAP3 SWAP1 POP JUMP JUMPDEST PUSH1 0x0 DUP2 MLOAD SWAP1 POP SWAP2 SWAP1 POP JUMP JUMPDEST PUSH1 0x0 DUP3 DUP3 MSTORE PUSH1 0x20 DUP3 ADD SWAP1 POP SWAP3 SWAP2 POP POP JUMP JUMPDEST PUSH1 0x0 JUMPDEST DUP4 DUP2 LT ISZERO PUSH2 0x6C4 JUMPI DUP1 DUP3 ADD MLOAD DUP2 DUP5 ADD MSTORE PUSH1 0x20 DUP2 ADD SWAP1 POP PUSH2 0x6A9 JUMP JUMPDEST DUP4 DUP2 GT ISZERO PUSH2 0x6D3 JUMPI PUSH1 0x0 DUP5 DUP5 ADD MSTORE JUMPDEST POP POP POP POP JUMP JUMPDEST PUSH1 0x0 PUSH2 0x6E4 DUP3 PUSH2 0x68A JUMP JUMPDEST PUSH2 0x6EE DUP2 DUP6 PUSH2 0x695 JUMP JUMPDEST SWAP4 POP PUSH2 0x6FE DUP2 DUP6 PUSH1 0x20 DUP7 ADD PUSH2 0x6A6 JUMP JUMPDEST PUSH2 0x707 DUP2 PUSH2 0x4F2 JUMP JUMPDEST DUP5 ADD SWAP2 POP POP SWAP3 SWAP2 POP POP JUMP JUMPDEST PUSH1 0x0 PUSH1 0x40 DUP3 ADD SWAP1 POP DUP2 DUP2 SUB PUSH1 0x0 DUP4 ADD MSTORE PUSH2 0x72C DUP2 DUP6 PUSH2 0x6D9 JUMP JUMPDEST SWAP1 POP PUSH2 0x73B PUSH1 0x20 DUP4 ADD DUP5 PUSH2 0x451 JUMP JUMPDEST SWAP4 SWAP3 POP POP POP JUMP JUMPDEST PUSH32 0x4E487B7100000000000000000000000000000000000000000000000000000000 PUSH1 0x0 MSTORE PUSH1 0x22 PUSH1 0x4 MSTORE PUSH1 0x24 PUSH1 0x0 REVERT JUMPDEST PUSH1 0x0 PUSH1 0x2 DUP3 DIV SWAP1 POP PUSH1 0x1 DUP3 AND DUP1 PUSH2 0x789 JUMPI PUSH1 0x7F DUP3 AND SWAP2 POP JUMPDEST PUSH1 0x20 DUP3 LT DUP2 EQ ISZERO PUSH2 0x79D JUMPI PUSH2 0x79C PUSH2 0x742 JUMP JUMPDEST JUMPDEST POP SWAP2 SWAP1 POP JUMP INVALID LOG2 PUSH5 0x6970667358 0x22 SLT KECCAK256 MOD 0xD0 MULMOD 0xD9 0xF 0xD6 0xF8 MOD SMOD 0xFB 0xCA 0x5F EXTCODESIZE PUSH8 0xE7FFB6790DEFC304 CALLDATASIZE POP BALANCE 0xD2 BYTE 0xA7 GASPRICE DUP2 0xB2 EXTCODECOPY PUSH5 0x736F6C6343 STOP ADDMOD MULMOD STOP CALLER "
        },
        "methodIdentifiers": {
          "addPerson(string,uint256)": "6f760f41",
          "people(uint256)": "9e7a13ad",
          "retrieve()": "2e64cec1",
          "store(uint256)": "6057361d"
        }
      }
    }
  }
}