{
  "_format": "hh-sol-artifact-1",
  "contractName": "SimpleStorage",
  "sourceName": "contracts/SimpleStorage.sol",
  "abi": [
    {
      "inputs": [
        {
          "internalType": "string",
          "name": "_name",
          "type": "string"
        },
        {
          "internalType": "uint256",
          "name": "_favoriteNumber",
          "type": "uint256"
        }
      ],
      "name": "addPerson",
      "outputs": [],
      "stateMutability": "nonpayable",
      "type": "function"
    },
    {
      "inputs": [
        {
          "internalType": "uint256",
          "name": "",
          "type": "uint256"
        }
      ],
      "name": "people",
      "outputs": [
        {
          "internalType": "string",
          "name": "name",
          "type": "string"
        },
        {
          "internalType": "uint256",
          "name": "favoriteNumber",
          "type": "uint256"
        }
      ],
      "stateMutability": "view",
      "type": "function"
    },
    {
      "inputs": [],
      "name": "retrieve",
      "outputs": [
        {
          "internalType": "uint256",
          "name": "",
          "type": "uint256"
        }
      ],
      "stateMutability": "view",
      "type": "function"
    },
    {
      "inputs": [
        {
          "internalType": "uint256",
          "name": "_favoriteNumber",
          "type": "uint256"
        }
      ],
      "name": "store",
      "outputs": [],
      "stateMutability": "nonpayable",
      "type": "function"
    }
  ],
  "bytecode": "0x608060405234801561001057600080fd5b506107d9806100206000396000f3fe608060405234801561001057600080fd5b506004361061004c5760003560e01c80632e64cec1146100515780636057361d1461006f5780636f760f411461008b5780639e7a13ad146100a7575b600080fd5b6100596100d8565b6040516100669190610460565b60405180910390f35b610089600480360381019061008491906104bb565b610166565b005b6100a560048036038101906100a0919061062e565b6101f4565b005b6100c160048036038101906100bc91906104bb565b6102e5565b6040516100cf929190610712565b60405180910390f35b60006101067f51a697b33be75eecbe95d6f5b56a1ba65a143754a709f2e5ecb0c1861564239c60001b6103a1565b6101327ffda407c13250df53d7ed16e3d17bd6bc1caa86f27067d968361bdf6ade7f20e460001b6103a1565b61015e7fa3f7144769adfba439f51a4e44240de91231e054c9db5b704cf62ed7360096b860001b6103a1565b600054905090565b6101927f0852d80376f439cfe6e2bdf1b1b7fd85dc1a543444efb89d56ba046a5001d5c760001b6103a1565b6101be7ff6ab3945d9025bb3f3c18e25b5b64371284f26ab99b0c04c1463c2fb11a4e0ef60001b6103a1565b6101ea7fb07f19f4cb2ec44c15bcb55c0e57350509229da7c6bfb6bc620f4d8daaaf4f8560001b6103a1565b8060008190555050565b6102207f40cc8135153e81ead3891f67c27b027b50966ff324f9571de01c97a35b07ab7160001b6103a1565b61024c7f0ca9fbd55aee2b996c483eb696409ce98a10dc42a2f94d4816a2e916c8e4ee7d60001b6103a1565b6102787f55e61f6dbeb8f0c11f2a8328b12dac80e01894790fa7d0edbffde0549790dfcd60001b6103a1565b6001604051806040016040528084815260200183815250908060018154018082558091505060019003906000526020600020906002020160009091909190915060008201518160000190805190602001906102d49291906103a4565b506020820151816001015550505050565b600181815481106102f557600080fd5b906000526020600020906002020160009150905080600001805461031890610771565b80601f016020809104026020016040519081016040528092919081815260200182805461034490610771565b80156103915780601f1061036657610100808354040283529160200191610391565b820191906000526020600020905b81548152906001019060200180831161037457829003601f168201915b5050505050908060010154905082565b50565b8280546103b090610771565b90600052602060002090601f0160209004810192826103d25760008555610419565b82601f106103eb57805160ff1916838001178555610419565b82800160010185558215610419579182015b828111156104185782518255916020019190600101906103fd565b5b509050610426919061042a565b5090565b5b8082111561044357600081600090555060010161042b565b5090565b6000819050919050565b61045a81610447565b82525050565b60006020820190506104756000830184610451565b92915050565b6000604051905090565b600080fd5b600080fd5b61049881610447565b81146104a357600080fd5b50565b6000813590506104b58161048f565b92915050565b6000602082840312156104d1576104d0610485565b5b60006104df848285016104a6565b91505092915050565b600080fd5b600080fd5b6000601f19601f8301169050919050565b7f4e487b7100000000000000000000000000000000000000000000000000000000600052604160045260246000fd5b61053b826104f2565b810181811067ffffffffffffffff8211171561055a57610559610503565b5b80604052505050565b600061056d61047b565b90506105798282610532565b919050565b600067ffffffffffffffff82111561059957610598610503565b5b6105a2826104f2565b9050602081019050919050565b82818337600083830152505050565b60006105d16105cc8461057e565b610563565b9050828152602081018484840111156105ed576105ec6104ed565b5b6105f88482856105af565b509392505050565b600082601f830112610615576106146104e8565b5b81356106258482602086016105be565b91505092915050565b6000806040838503121561064557610644610485565b5b600083013567ffffffffffffffff8111156106635761066261048a565b5b61066f85828601610600565b9250506020610680858286016104a6565b9150509250929050565b600081519050919050565b600082825260208201905092915050565b60005b838110156106c45780820151818401526020810190506106a9565b838111156106d3576000848401525b50505050565b60006106e48261068a565b6106ee8185610695565b93506106fe8185602086016106a6565b610707816104f2565b840191505092915050565b6000604082019050818103600083015261072c81856106d9565b905061073b6020830184610451565b9392505050565b7f4e487b7100000000000000000000000000000000000000000000000000000000600052602260045260246000fd5b6000600282049050600182168061078957607f821691505b6020821081141561079d5761079c610742565b5b5091905056fea264697066735822122006d009d90fd6f80607fbca5f3b67e7ffb6790defc304365031d21aa73a81b23c64736f6c63430008090033",
  "linkReferences": {},
  "deployedLinkReferences": {}
}